:020000040800F2
:1000000000060020E1010008E3010008E301000808
:10001000E3010008E3010008E3010008E301000830
:10002000E3010008E3010008E3010008D51C000813
:10003000E3010008E3010008E3010008E301000810
:10004000E3010008E3010008E3010008E301000800
:10005000E3010008E30100087D1F0008A51F000858
:10006000CD1F0008F51F00081D200008E30100084F
:10007000E3010008E3010008E3010008E3010008D0
:10008000E3010008E3010008E3010008E3010008C0
:10009000E3010008E3010008E3010008452000082F
:1000A000E3010008E3010008E3010008E3010008A0
:1000B0002D210008E3010008E3010008E301000826
:1000C000E3010008E3010008E3010008E301000880
:1000D000E301000819210008E3010008E30100081A
:1000E000A9200008E3010008E3010008E30100087B
:1000F000E3010008E3010008E3010008E301000850
:10010000E3010008E3010008E3010008E30100083F
:10011000E3010008E3010008E3010008E30100082F
:10012000E3010008E3010008E3010008E30100081F
:10013000E3010008E3010008E3010008E30100080F
:10014000E3010008E3010008E3010008E3010008FF
:10015000E3010008E3010008E3010008E3010008EF
:10016000E3010008E3010008E3010008E3010008DF
:10017000E3010008E3010008E3010008E3010008CF
:10018000E3010008E3010008E3010008E3010008BF
:10019000E3010008E3010008E3010008E3010008AF
:1001A000E3010008E3010008E3010008E30100089F
:1001B000E3010008E3010008E3010008E30100088F
:1001C000E3010008E3010008E3010008E30100087F
:1001D000E3010008E3010008E3010008E30100086F
:1001E00002E000F000F8FEE772B6374880F30888B6
:1001F000364880F3098836483649086040F20000E6
:10020000CCF200004EF63471CEF200010860BFF36C
:100210004F8FBFF36F8F40F20000C0F2F0004EF638
:100220008851CEF200010860BFF34F8FBFF36F8F8C
:100230004FF00000E1EE100A4EF63C71CEF20001E4
:100240000860062080F31488BFF36F8F01F04EFC26
:1002500001F0E0FC4FF055301F491B4A91423CBF72
:1002600041F8040BFAE71D49184A91423CBF41F896
:10027000040BFAE71A491B4A1B4B9A423EBF51F83E
:10028000040B42F8040BF8E700201849184A914281
:100290003CBF41F8040BFAE701F02CFC01F00EFD25
:1002A000144C154DAC4203DA54F8041B8847F9E7A7
:1002B00000F042F8114C124DAC4203DA54F8041B22
:1002C0008847F9E701F014BC000600200022002056
:1002D0000000000808ED00E00000002000060020FB
:1002E000D823000800220020182200201822002015
:1002F0001C290020E0010008E0010008E0010008DE
:10030000E00100082DE9F04F2DED108AC1F80CD066
:10031000C3689D46BDEC108ABDE8F08F002383F3CF
:1003200011882846A047002001F0ECF8FEE701F014
:1003300085F800DFFEE7000038B500F0B5FB01F0FE
:10034000A5FB054601F0C8FB0446C8B90E4B9D420B
:1003500018D001339D4218BF044641F2883504BFCE
:1003600001240025002001F09BFB0CB100F074F883
:1003700000F0E0FC284600F0B1F800F06DF8F9E775
:100380000025EFE70546EDE7010007B008B500F0EE
:1003900057FBA0F120035842584108BD07B541F270
:1003A0001203022101A8ADF8043000F067FB03B08E
:1003B0005DF804FB38B5302383F3118817480368D0
:1003C0000BB101F05DF9164A144800234FF47A711D
:1003D00001F04CF9002383F31188124C236813B108
:1003E0002368013B2360636813B16368013B63606A
:1003F0000D4D2B7833B963687BB9022000F028FCDF
:10040000322363602B78032B07D163682BB902205A
:1004100000F01EFC4FF47A73636038BD1822002090
:10042000B50300083823002030220020084B187044
:1004300003280CD8DFE800F008050208022000F0CD
:10044000F9BB022000F0E6BB024B00225A60704765
:1004500030220020382300201B4B1C4A10B51C46BC
:10046000196801312ED004339342F9D16268184BD8
:100470009A4227D9174B9B6803F1006303F5803339
:100480009A421FD2002000F029FB0220FFF7CEFF86
:10049000114B1A6C00221A64196E1A66196E596C87
:1004A0005A64596E5A665B6E72B64FF0E023302183
:1004B000C3F8084DD4E9003281F311889D4683F3D7
:1004C0000888104710BD00BF000001082000010887
:1004D000FFFF000800220020003802402DE9F04F05
:1004E00093B0AA4B00902022FF210AA89D6800F03B
:1004F000CBFBA74A1378A3B9A6480121036011706A
:10050000302383F3118803680BB101F0B9F8A24AD4
:10051000A04800234FF47A7101F0A8F8002383F378
:100520001188009B13B19D4B009A1A609C4A009C55
:100530001378032B1EBF00231370984A4FF0000A54
:1005400018BF5360D3465646D146012000F072FBD7
:1005500024B1924B1B68002B00F01182002000F0A8
:100560006FFA0390039B002BF2DB012000F052FB9B
:10057000039B213B162BE8D801A252F823F000BFC1
:10058000DD05000805060008990600084B0500086F
:100590004B0500084B05000823070008F308000876
:1005A0000D0800086F08000897080008BD0800083B
:1005B0004B050008CF0800084B050008410900085A
:1005C0007D0600084B05000885090008E9050008BC
:1005D0007D0600084B0500086F0800080220FFF7A1
:1005E000D5FE002840F0F581009B0221BAF1000FF2
:1005F00008BF1C4605A841F21233ADF8143000F0D4
:100600003DFAA2E74FF47A7000F01AFA071EEBDB0E
:100610000220FFF7BBFE0028E6D0013F052F00F2C5
:10062000DA81DFE807F0030A0D101336052305937E
:10063000042105A800F022FA17E054480421F9E744
:1006400058480421F6E758480421F3E74FF01C0806
:10065000404600F045FA08F104080590042105A879
:1006600000F00CFAB8F12C0FF2D1012000FA07F7D4
:1006700047EA0B0B5FFA8BFB4FF0000900F050FBD1
:1006800026B10BF00B030B2B08BF0024FFF786FEEF
:100690005BE746480421CDE7002EA5D00BF00B0305
:1006A0000B2BA1D10220FFF771FE074600289BD03B
:1006B000012000F013FA0220FFF7B8FE00261FFA0F
:1006C00086F8404600F01AFA044690B100214046F0
:1006D00000F024FA01360028F1D1BA46044641F26E
:1006E0001213022105A8ADF814303E4600F0C6F9F9
:1006F0002BE70120FFF79AFE2546244B9B68AB426F
:1007000007D9284600F0ECF9013040F06781043544
:10071000F3E7234B00251D70204BBA465D603E4633
:10072000ACE7002E3FF460AF0BF00B030B2B7FF414
:100730005BAF0220FFF77AFE322000F081F9B0F1C2
:100740000008FFF651AF18F003077FF44DAF0F4AD2
:10075000926808EB050393423FF646AFB8F5807FF9
:100760003FF742AF124B0193B84523DD4FF47A7047
:1007700000F066F90390039A002AFFF635AF019B5B
:10078000039A03F8012B0137EDE700BF0022002098
:100790003423002018220020B5030008382300204D
:1007A0003022002004220020082200200C220020F9
:1007B00034220020C820FFF7E9FD074600283FF457
:1007C00013AF1F2D11D8C5F1200242450AAB25F009
:1007D000030028BF424683490192184400F04AFAB8
:1007E000019A8048FF2100F04FFA4FEAA8037D49A3
:1007F0000193C8F38702284600F04EFA0646002807
:100800003FF46DAF019B05EB830537E70220FFF74F
:10081000BDFD00283FF4E8AE00F0ACF900283FF43D
:10082000E3AE0027B846704B9B68BB4218D91F2F18
:1008300011D80A9B01330ED027F0030312AA1344E8
:1008400053F8203C05934046042205A900F098FA8D
:1008500004378046E7E7384600F042F90590F2E7B2
:10086000CDF81480042105A800F008F906E700235C
:10087000642104A8049300F0F7F800287FF4B4AED4
:100880000220FFF783FD00283FF4AEAE049800F08D
:1008900059F90590E6E70023642104A8049300F0C9
:1008A000E3F800287FF4A0AE0220FFF76FFD0028D8
:1008B0003FF49AAE049800F055F9EAE70220FFF7FA
:1008C00065FD00283FF490AE00F064F9E1E70220F6
:1008D000FFF75CFD00283FF487AE05A9142000F067
:1008E0005FF904210746049004A800F0C7F83946D0
:1008F000B9E7322000F0A4F8071EFFF675AEBB077B
:100900007FF472AE384A926807EB090393423FF6D0
:100910006BAE0220FFF73AFD00283FF465AE27F0EA
:1009200003074F44B9453FF4A9AE484600F0D8F854
:100930000421059005A800F0A1F809F10409F1E7E8
:100940004FF47A70FFF722FD00283FF44DAE00F01F
:1009500011F9002844D00A9B01330BD008220AA9C0
:10096000002000F099F900283AD02022FF210AA89F
:1009700000F08AF9FFF712FD1C4800F0C9FD13B022
:10098000BDE8F08F002E3FF42FAE0BF00B030B2BC6
:100990007FF42AAE0023642105A8059300F064F8D3
:1009A000074600287FF420AE0220FFF7EFFC8046C8
:1009B00000283FF419AEFFF7F1FC41F2883000F057
:1009C000A7FD059800F0C2F9464600F0A9F93C469B
:1009D000BBE5064652E64FF0000905E6BA467EE65C
:1009E00037467CE63422002000220020A086010049
:1009F00070B5104B1B780133DBB2012B0C4612D8BB
:100A00000D4B1D6829684FF47A730E6AA2FB0332FE
:100A1000014622462846B047844204D1074B0022B3
:100A20001A70012070BD4FF4FA7000F071FD0020C3
:100A3000F8E700BF102200201422002080230020AD
:100A400007B50023024601210DF107008DF807309C
:100A5000FFF7CEFF20B19DF8070003B05DF804FB5F
:100A60004FF0FF30F9E700000A4608B50421FFF710
:100A7000BFFF80F00100C0B2404208BD30B4074B58
:100A80000A461978064B53F821402368DD69054B67
:100A90000146AC46204630BC604700BF80230020A2
:100AA00014220020A086010070B500F0F5FE094E6A
:100AB000094D3080002428683388834208D900F02B
:100AC000E5FE2B6804440133B4F5803F2B60F2D37C
:100AD00070BD00BF822300204023002000F08ABFA9
:100AE00000F1006000F580300068704700F10060A0
:100AF000920000F5803000F015BF0000054B1A6829
:100B0000054B1B889B1A834202D9104400F0BEBEDD
:100B100000207047402300208223002038B5084D74
:100B2000044629B128682044BDE8384000F0CEBE14
:100B30002868204400F0B2FE0028F3D038BD00BF82
:100B40004023002010F003030AD1B0F5047F05D242
:100B500000F10050A0F51040D0F80038184670475A
:100B60000023FBE700F10050A0F51040D0F8100A78
:100B700070470000064991F8243033B10023086A19
:100B800081F824300822FFF7B1BF0120704700BF71
:100B900044230020014B1868704700BF002004E088
:100BA00070B5194B1D68194B0138C5F30B04084487
:100BB0002D0C04221E88A6420BD15C680A46013C1B
:100BC000824213460FD214F9016F4EB102F8016B45
:100BD000F6E7013A03F10803ECD181420B4602D259
:100BE0002C2203F8012B0A4A05241688AE4204D1B0
:100BF000984284BF967803F8016B013C02F104022D
:100C0000F3D1581A70BD00BF002004E03022000864
:100C10001C220008022804D1054B4FF480329A614F
:100C200070470128FCD1024B4FF40032F7E700BFB8
:100C300000000240022803D1044B01229A61704750
:100C40000128FCD1014B0222F8E700BF000002405E
:100C5000022805D1064A536983F0010353617047A6
:100C60000128FCD1024A536983F00203F6E700BF72
:100C70000000024010B50023934203D0CC5CC45462
:100C80000133F9E710BD000002440346934202D04D
:100C900003F8011BFAE770472DE9F8431F4D14468E
:100CA00095F824200746884652BBDFF870909CB325
:100CB00095F824302BB92022FF2148462F62FFF7F8
:100CC000E3FF95F82400C0F10802A24228BF2246A3
:100CD000D6B24146920005EB8000FFF7CBFF95F8B6
:100CE0002430A41B1E44F6B2082E17449044E4B2EC
:100CF00085F82460DBD1FFF73DFF0028D7D108E05D
:100D00002B6A03EB82038342CFD0FFF733FF002827
:100D1000CBD10020BDE8F8830120FBE7442300206D
:100D2000024B1A78024B1A70704700BF80230020D4
:100D30001022002003494FF4E1330B60024B186886
:100D400000F0E2BA6C23002014220020094B10B5F9
:100D50001422044600211846FFF796FF064A074B67
:100D6000127804600146BDE8104053F8220000F0FC
:100D7000CBBA00BF6C230020802300201422002067
:100D800030B5094D0A4491420DD011F8013B58404D
:100D9000082340F30004013B2C4013F0FF0384EAD6
:100DA0005000F6D1EFE730BD2083B8ED026843680C
:100DB0001143016003B1184770470000024AD3682D
:100DC00043F0C003D36070470010014010B5084CD9
:100DD000084A0021204600F075FA074BC4F85C323F
:100DE00003F1454303F52D43C4F8603210BD00BF45
:100DF00084230020BD0D000800100140234A037C1D
:100E0000002918BF0A46012B30B5C0F868220CD162
:100E10001F4B984209D11F4B596C41F01001596486
:100E2000596E41F0100159665B6EB2F904501468B6
:100E3000D0F86032D0F85C12002D03EB5403B3FB02
:100E4000F4F3BEBF23F0070503F0070343EA4503AD
:100E500094888B60D38843F040030B61138943F07F
:100E600001034B6144F4045343F02C03CB6004F4BE
:100E7000A05400230B60B4F5806F0B684B680CBF67
:100E80007F23FF2380F8643230BD00BF502200086A
:100E900084230020003802402DE9F041D0F85C6244
:100EA000F7683368DA0504469DB20DD5302383F325
:100EB00011884FF480610430FFF778FF6FF480737E
:100EC0003360002383F31188302383F3118804F106
:100ED000040815F02F033AD183F31188380615D58D
:100EE000290613D5302383F3118804F1380000F06C
:100EF00065F900284EDA0821201DFFF757FF4FF64D
:100F00007F733B40F360002383F311887A0616D584
:100F10006B0614D5302383F31188D4E913239A4246
:100F20000AD1236C43B127F040073F041021201D54
:100F30003F0CFFF73BFFF760002383F31188D4F8E1
:100F40006822D36843B3BDE8F041106918472B0706
:100F500014D015F0080F0CBF00214FF48071E80782
:100F600048BF41F02001AA0748BF41F040016B078C
:100F700048BF41F080014046FFF718FFAD06736897
:100F800005D594F864122046194000F0CBF9356875
:100F9000ADB29EE77060B6E7BDE8F081F8B51546E2
:100FA00082680669AA420B46816938BF8568761A4D
:100FB000B54204460BD218462A46FFF75BFEA369EA
:100FC0002B44A361A3685B1BA3602846F8BD0CD922
:100FD00018463246FFF74EFEAF1BE1683A463044F2
:100FE000FFF748FEE3683B44EBE718462A46FFF765
:100FF00041FEE368E5E7000083689342F7B51546D4
:10100000044638BF8568D0E90460361AB5420BD271
:101010002A46FFF72FFE63692B446361A3682846C5
:101020005B1BA36003B0F0BD0DD932460191FFF701
:1010300021FE0199E068AF1B3A463144FFF71AFEE2
:10104000E3683B44E9E72A46FFF714FEE368E4E778
:1010500010B50A440024C361029B8460C0E900000B
:10106000C0E90511C1600261036210BD08B5D0E995
:101070000532934201D1826882B98268013282606E
:101080005A1C42611970D0E904329A4224BFC368E5
:101090004361002100F058FA002008BD4FF0FF30F6
:1010A000FBE7000070B5302304460E4683F3118839
:1010B000A568A5B1A368A269013BA360531CA36105
:1010C00015782269934224BFE368A361E3690BB1F9
:1010D00020469847002383F31188284607E03146CD
:1010E000204600F021FA0028E2DA85F3118870BD6D
:1010F0002DE9F74F04460E4617469846D0F81C9047
:101100004FF0300A8AF311884FF0000B154665B195
:101110002A4631462046FFF741FF034660B9414663
:10112000204600F001FA0028F1D0002383F3118853
:10113000781B03B0BDE8F08FB9F1000F03D0019028
:101140002046C847019B8BF31188ED1A1E448AF391
:101150001188DCE7C0E90511C160C3611144009B3F
:101160008260C0E90000016103627047F8B504467F
:101170000D461646302383F31188A768A7B1A368EC
:10118000013BA36063695A1C62611D70D4E904329B
:101190009A4224BFE3686361E3690BB12046984734
:1011A000002080F3118807E03146204600F0BCF9AA
:1011B0000028E2DA87F31188F8BD0000D0E90523A2
:1011C0009A4210B501D182687AB982680132826090
:1011D0005A1C82611C7803699A4224BFC3688361E8
:1011E000002100F0B1F9204610BD4FF0FF30FBE7C1
:1011F0002DE9F74F04460E4617469846D0F81C9046
:101200004FF0300A8AF311884FF0000B154665B194
:101210002A4631462046FFF7EFFE034660B94146B5
:10122000204600F081F90028F1D0002383F31188D3
:10123000781B03B0BDE8F08FB9F1000F03D0019027
:101240002046C847019B8BF31188ED1A1E448AF390
:101250001188DCE7026843681143016003B1184755
:10126000704700001430FFF743BF00004FF0FF331A
:101270001430FFF73DBF00003830FFF7B9BF000062
:101280004FF0FF333830FFF7B3BF00001430FFF7E3
:1012900009BF00004FF0FF311430FFF703BF00001B
:1012A0003830FFF763BF00004FF0FF323830FFF7F0
:1012B0005DBF0000012914BF6FF0130000207047CC
:1012C000FFF784BD37B515460E4A02600022426022
:1012D000C0E902220122044602740B46009000F18C
:1012E0005C014FF480721430FFF7B2FE00942B467D
:1012F0004FF4807204F5AE7104F13800FFF72AFF55
:1013000003B030BD6422000810B53023044683F3D7
:101310001188FFF773FD02232374002080F31188E6
:1013200010BD000038B5C36904460D461BB9042141
:101330000844FFF78FFF294604F11400FFF796FEDB
:10134000002806DA201D4FF40061BDE83840FFF7A1
:1013500081BF38BD00230375826803691B689968E3
:101360009142FBD25A680360426010605860704737
:1013700000230375826803691B6899689142FBD852
:101380005A680360426010605860704708B50846AC
:10139000302383F311880B7D032B05D0042B0DD054
:1013A0002BB983F3118808BD8B6900221A604FF0B6
:1013B000FF338361FFF7CEFF0023F2E7D1E900326C
:1013C00013605A60F3E70000FFF7C4BF054BD9680C
:1013D0000875186802681A60536001220275D860A7
:1013E000FEF790BFF025002030B50C4BDD684B1C9C
:1013F00087B004460FD02B46094A684600F036F9FC
:101400002046FFF7E3FF009B13B1684600F038F970
:10141000A86907B030BDFFF7D9FFF9E7F025002034
:101420008D130008044B1A68DB6890689B6898422B
:1014300094BF002001207047F0250020084B10B514
:101440001C68D86822681A60536001222275DC602B
:10145000FFF78EFF01462046BDE81040FEF752BF61
:10146000F025002038B5074C07490848012300251E
:101470002370656000F076FB0223237085F31188EA
:1014800038BD00BF5828002090220008F025002019
:1014900000F02CB98B60022308618B8208467047EC
:1014A0008368A3F1840243F8142C026943F8442CA6
:1014B000426943F8402C094A43F8242CC26843F897
:1014C000182C022203F80C2C002203F80B2C044ADF
:1014D00043F8102CA3F12000704700BF1D03000843
:1014E000F025002008B5FFF7DBFFBDE80840FFF757
:1014F0006BBF0000024BDB6898610F20FFF766BFEF
:10150000F0250020302383F31188FFF7F3BF00009C
:1015100008B50146302383F311880820FFF764FFE4
:10152000002383F3118808BD064BDB6839B142689C
:1015300018605A60136043600420FFF755BF4FF0F6
:10154000FF307047F02500200368984206D01A68E3
:101550000260506099611846FFF736BF704700007F
:1015600010B503689C68A2420CD85C688A600B6066
:101570004C602160596099688A1A9A604FF0FF3375
:10158000836010BD1B68121BECE700000A2938BFFE
:101590000A2170B504460D460A26601900F0DCFAEF
:1015A00000F0C8FA041BA54203D8751C2E46044659
:1015B000F3E70A2E04D9BDE87040012000F012BB09
:1015C00070BD0000F8B5144B0D46D96103F1100150
:1015D00041600A2A1969826038BF0A2201604860A6
:1015E0001861A818144600F0A9FA0A2700F0A2FA18
:1015F000431BA342064606D37C1C281900F0ACFA14
:1016000027463546F2E70A2F04D9BDE8F840012005
:1016100000F0E8BAF8BD00BFF0250020F8B5064696
:101620000D4600F087FA0F4A134653F8107F9F4289
:1016300006D12A4601463046BDE8F840FFF7C2BF52
:10164000D169BB68441A2C1928BF2C46A34202D981
:101650002946FFF79BFF224631460348BDE8F84084
:10166000FFF77EBFF02500200026002010B4C0E95F
:10167000032300235DF8044B4361FFF7CFBF000055
:1016800010B5194C236998420DD0D0E90032816819
:1016900013605A609A680A449A60002303604FF00E
:1016A000FF33A36110BD2346026843F8102F536037
:1016B0000022026022699A4203D1BDE8104000F086
:1016C00045BA936881680B44936000F033FA22694D
:1016D000E1699268441AA242E4D91144BDE810407D
:1016E000091AFFF753BF00BFF02500202DE9F0478E
:1016F000DFF8BC8008F110072C4ED8F8105000F02D
:1017000019FAD8F81C40AA68031B9A423ED8144420
:10171000D5E900324FF00009C8F81C4013605A6048
:10172000C5F80090D8F81030B34201D100F00EFA9D
:1017300089F31188D5E9033128469847302383F38C
:1017400011886B69002BD8D000F0F4F96A69A0EB1E
:1017500004094A4582460DD2022000F043FA0022D5
:10176000D8F81030B34208D151462846BDE8F047BA
:10177000FFF728BF121A2244F2E712EB090938BF1B
:101780004A4629463846FFF7EBFEB5E7D8F8103051
:10179000B34208D01444211AC8F81C00A960BDE85F
:1017A000F047FFF7F3BEBDE8F08700BF002600203A
:1017B000F025002000207047FEE700007047000081
:1017C0004FF0FF3070470000BFF34F8F024AD368DD
:1017D000DB03FCD4704700BF003C024008B5094B56
:1017E0001B7873B9FFF7F0FF074B1A69002ABFBFD8
:1017F000064A5A6002F188325A601A6822F48062FE
:101800001A6008BD60280020003C024023016745A3
:1018100008B50B4B1B7893B9FFF7D6FF094B1A6934
:1018200042F000421A611A6842F480521A601A6843
:1018300022F480521A601A6842F480621A6008BD6D
:1018400060280020003C02400B28F0B516D80C4C54
:101850000C4923787BB90C4D0E460C234FF00062E7
:1018600055F8047B46F8042B013B13F0FF033A4480
:10187000F6D10123237051F82000F0BD0020FCE7D1
:1018800094280020642800209C220008014B53F873
:10189000200070479C2200080C2070470B2810B5D0
:1018A000044601D9002010BDFFF7CEFF064B53F8C8
:1018B00024301844C21A0BB90120F4E7126801322F
:1018C000F0D1043BF6E700BF9C2200080B2810B5BE
:1018D000044621D8FFF778FFFFF780FF0F4AF32374
:1018E000D360C300DBB243F4007343F0020313611F
:1018F000136943F480331361FFF766FFFFF7A4FF1A
:10190000074B53F8241000F0D9F8FFF781FF204669
:10191000BDE81040FFF7C2BF002010BD003C0240F0
:101920009C220008F8B512F00103144642D1821837
:10193000B2F1016F57D82D4B1B6813F0010352D041
:101940002B4DFFF74BFFF323EB60FFF73DFF40F21A
:101950000127032C15D824F001046618244C401AE2
:1019600040F20117B142236900EB010524D123F0B5
:1019700001032361FFF74CFF0120F8BD043C043054
:10198000E7E78307E7D12B6923F440732B612B69C9
:101990003B432B6151F8046B0660BFF34F8FFFF799
:1019A00013FF03689E42E9D02B6923F001032B61EA
:1019B000FFF72EFF0020E0E723F440732361236943
:1019C0003B4323610B882B80BFF34F8FFFF7FCFE57
:1019D0002D8831F8023BADB2AB42C3D0236923F06E
:1019E00001032361E4E71846C7E700BF003802405F
:1019F000003C0240084908B50B7828B11BB9FFF735
:101A0000EDFE01230B7008BD002BFCD0BDE80840A3
:101A10000870FFF7FDBE00BF6028002010B502442B
:101A2000064BD2B2904200D110BD441C00B253F814
:101A3000200041F8040BE0B2F4E700BF502800405A
:101A40000F4B30B51C6F240407D41C6F44F4007492
:101A50001C671C6F44F400441C670A4C236843F461
:101A6000807323600244084BD2B2904200D130BD53
:101A7000441C00B251F8045B43F82050E0B2F4E794
:101A800000380240007000405028004007B5012295
:101A900001A90020FFF7C2FF019803B05DF804FB25
:101AA00013B50446FFF7F2FFA04205D0012201A9B9
:101AB00000200194FFF7C4FF02B010BD7047000082
:101AC000034B1A681AB9034AD2F874281A6070478F
:101AD000982800200030024008B5FFF7F1FF024BC4
:101AE0001868C0F3407008BD9828002070470000B7
:101AF000FEE700000A4B0B480B4A90420BD30B4BFE
:101B0000DA1C121AC11E22F003028B4238BF0022D7
:101B10000021FFF7B9B853F8041B40F8041BECE7A9
:101B2000F02300081C2900201C2900201C2900206B
:101B300000F02EB94FF08043586A70474FF0804351
:101B4000002258631A610222DA6070474FF0804326
:101B50000022DA60704700004FF0804358637047FE
:101B6000FEE7000070B51B4B01630025044686B0FC
:101B7000586085620E4600F0BDF804F11003C4E918
:101B800004334FF0FF33C4E90635C4E90044A560CF
:101B9000E562FFF7CFFF2B460246C4E9082304F1B4
:101BA00034010D4A256580232046FFF773FC01238D
:101BB000E0600A4A0375009272680192B268CDE94A
:101BC0000223074B6846CDE90435FFF78BFC06B0CE
:101BD00070BD00BF58280020CC220008D122000888
:101BE000611B0008024AD36A1843D062704700BFE5
:101BF000F02500204B6843608B688360CB68C3602E
:101C00000B6943614B6903628B6943620B68036034
:101C10007047000008B5264B26481A6940F2FF11AC
:101C20000A431A611A6922F4FF7222F001021A6152
:101C30001A691A6B0A431A631A6D0A431A651E4A17
:101C40001B6D1146FFF7D6FF02F11C0100F5806005
:101C5000FFF7D0FF02F1380100F58060FFF7CAFFFF
:101C600002F1540100F58060FFF7C4FF02F170013A
:101C700000F58060FFF7BEFF02F18C0100F5806087
:101C8000FFF7B8FF02F1A80100F58060FFF7B2FF8F
:101C900002F1C40100F58060FFF7ACFF02F1E00142
:101CA00000F58060FFF7A6FFBDE8084000F0ECB843
:101CB0000038024000000240D822000808B500F0B9
:101CC0007BFAFFF7CFFBBDE80840FFF7F9BE000045
:101CD00070470000EFF3098305494A6B22F00102C7
:101CE0004A63683383F30988002383F311887047BC
:101CF00000EF00E0302080F3118862B60C4B0D4AF3
:101D0000D96821F4E0610904090C0A43DA60D3F8C8
:101D1000FC20094942F08072C3F8FC200A6842F0B6
:101D200001020A602022DA7783F82200704700BFA0
:101D300000ED00E00003FA05001000E010B53023CC
:101D400083F311880E4B5B6813F4006314D0F1EE3B
:101D5000103AEFF30984683C4FF08073E361094B5C
:101D6000DB6B236684F30988FFF75CFB10B1064B3D
:101D7000A36110BD054BFBE783F31188F9E700BFB2
:101D800000ED00E000EF00E02F0300083203000840
:101D90000F4B1A6C42F001021A641A6E42F00102F3
:101DA0001A660C4A1B6E936843F0010393604FF070
:101DB000804353229A624FF0FF32DA6200229A6126
:101DC0005A63DA605A6001225A611A60704700BF94
:101DD00000380240002004E04FF0804208B511694D
:101DE000D3680B40D9B2C9439B07116107D5302393
:101DF00083F31188FFF74CFB002383F3118808BDA0
:101E00001F4B1A696FEAC2526FEAD2521A611A69FD
:101E1000C2F308021A614FF0FF301A695A6958611B
:101E200000215A6959615A691A6A62F080521A622D
:101E30001A6A02F080521A621A6A5A6A58625A6A18
:101E400059625A6A1A6C42F080521A641A6E42F051
:101E500080521A661A6E0B4A106840F48070106047
:101E6000186F00F44070B0F5007F1EBF4FF4803053
:101E700018671967536823F40073536000F05EB964
:101E80000038024000700040334B4FF080521A641B
:101E9000324A4FF4404111601A6842F001021A6060
:101EA0001A689107FCD59A6822F003029A602A4BBF
:101EB0009A6812F00C02FBD1196801F0F90119605F
:101EC0009A601A6842F480321A601A689203FCD54C
:101ED0005A6F42F001025A671F4B5A6F9007FCD5A8
:101EE0001F4A5A601A6842F080721A601B4A53688F
:101EF0005904FCD5184B1A689201FCD5194A9A600E
:101F0000194B1A68194B9A42194B21D1194A116879
:101F1000194A91421CD140F205121A60144A136802
:101F200003F00F03052BFAD10B4B9A6842F0020223
:101F30009A609A6802F00C02082AFAD15A6C42F4AC
:101F400080425A645A6E42F480425A665B6E704711
:101F500040F20572E1E700BF003802400070004027
:101F60000C54400700948838002004E011640020DD
:101F7000003C024000ED00E041C20F41074A08B5B5
:101F8000536903F00103536123B1054A13680BB190
:101F900050689847BDE80840FFF7D0BE003C0140BC
:101FA0009C280020074A08B5536903F002035361D7
:101FB00023B1054A93680BB1D0689847BDE8084043
:101FC000FFF7BCBE003C01409C280020074A08B532
:101FD000536903F00403536123B1054A13690BB13C
:101FE00050699847BDE80840FFF7A8BE003C014093
:101FF0009C280020074A08B5536903F00803536181
:1020000023B1054A93690BB1D0699847BDE80840F0
:10201000FFF794BE003C01409C280020074A08B509
:10202000536903F01003536123B1054A136A0BB1DE
:10203000506A9847BDE80840FFF780BE003C014069
:102040009C280020164B10B55C6904F478725A6124
:10205000A30604D5134A936A0BB1D06A9847600669
:1020600004D5104A136B0BB1506B9847210604D569
:102070000C4A936B0BB1D06B9847E20504D5094A23
:10208000136C0BB1506C9847A30504D5054A936CAB
:102090000BB1D06C9847BDE81040FFF74FBE00BFB2
:1020A000003C01409C280020194B10B55C6904F4E9
:1020B0007C425A61620504D5164A136D0BB1506D0E
:1020C0009847230504D5134A936D0BB1D06D9847FB
:1020D000E00404D50F4A136E0BB1506E9847A1046B
:1020E00004D50C4A936E0BB1D06E9847620404D5A8
:1020F000084A136F0BB1506F9847230404D5054A63
:10210000936F0BB1D06F9847BDE81040FFF716BE34
:10211000003C01409C28002008B50348FEF7BCFEA7
:10212000BDE80840FFF70ABE8423002008B5FFF78A
:1021300053FEBDE80840FFF701BE0000062108B5C8
:10214000084600F023F80621072000F01FF80621BA
:10215000082000F01BF80621092000F017F80621DE
:102160000A2000F013F80621172000F00FF80621CE
:10217000282000F00BF807211C2000F007F8BDE82C
:1021800008400C21252000F001B8000000F1604358
:1021900003F561430901C9B283F80013012200F07D
:1021A0001F039A4043099B0003F1604303F5614319
:1021B000C3F880211A60704708B5FFF721FE00F0D0
:1021C00009F8FFF77DF8FFF783FDBDE80840FFF74A
:1021D000AFBC00000023054A19460133102BC2E9A9
:1021E000001102F10802F8D1704700BF9C280020BE
:1021F00053544D3332463F3F3F0053544D333246E4
:102200003430780053544D333246343278005354CE
:102210004D33324634343658580000000120330024
:102220000010410001105A0003105900071031003E
:1022300000000000F021000813040000FA2100084B
:102240001904000004220008210400000E220008E6
:1022500000960000000000000000000000000000E8
:102260000000000000000000811200086D1200084C
:10227000A912000895120008A11200088D1200088A
:102280007912000865120008B512000863300000DA
:102290008C2200084826002058280020004000001A
:1022A000004000000040000000400000000001006D
:1022B0000000020000000200000002000000020016
:1022C0000000020000000200000002006D61696E63
:1022D0000069646C6500000005000040000000001B
:1022E000AAAAAAAA00000040FCFF0000000000000B
:1022F0000000000010A0000100000000AAAAAAAA85
:1023000010500001FFFF00000000007700000000F7
:102310000001000000000000AAAAAAAA0001000013
:10232000FFFF0000000000000000000000000000AF
:1023300000000000AAAAAAAA00000000FFFF0000F7
:10234000000000000000000000000000000000008D
:10235000AAAAAAAA00000000FFFF000000000000D7
:10236000000000000000000000000000AAAAAAAAC5
:1023700000000000FFFF000000000000000000005F
:102380000000000000000000AAAAAAAA00000000A5
:10239000FFFF00000000000000000000000000003F
:1023A000000000000A000000000000000300000020
:1023B000000000000000000000000000000000001D
:1023C000000000000000000000000000000000000D
:1023D0000000000000000000E8070000000000000E
:1023E00000000F0000000000FF0000008423002018
:1023F000FFFFFFFFFFFFFFFFFFFFFFFFFFFFFFFFED
:10240000FFFFFFFFFFFFFFFFFFFFFFFFFFFFFFFFDC
:10241000FFFFFFFFFFFFFFFFFFFFFFFFFFFFFFFFCC
:10242000FFFFFFFFFFFFFFFFFFFFFFFFFFFFFFFFBC
:020000040801F1
:1000000000060020A9120108E1890A083D890A08B2
:10001000A9890A083D890A0875890A08AB120108EE
:10002000AB120108AB120108AB120108A9FC0C08C5
:10003000AB120108AB120108AB120108AB120108A8
:10004000AB120108AB120108AB120108AB12010898
:10005000AB120108AB1201086D3A0D08953A0D0874
:10006000BD3A0D08E53A0D080D3B0D0865FD0C087D
:100070008DFD0C08B9FD0C08E5FD0C0811FE0C08FF
:1000800039FE0C0865FE0C08AB120108A57C0A08B5
:10009000D17C0A08E17C0A08AB120108353B0D0847
:1000A000453C0D08493C0D085D3C0D08613C0D08C0
:1000B000653C0D08AB120108793C0D08BD060D0822
:1000C000D1060D08F5060D0809070D08AB12010849
:1000D000AB120108093C0D08AB1201081D3C0D08CC
:1000E000993B0D08AB120108AB120108893C0D08C1
:1000F0008D3C0D08A13C0D08A53C0D0891FE0C0897
:10010000AB120108AB120108AB120108AB120108D7
:10011000AB120108313C0D08AB120108AB1201080B
:10012000BDFE0C08E5FE0C0811FF0C083DFF0C0895
:1001300069FF0C08AB120108AB120108AB120108F1
:10014000AB120108AB120108AB120108AB12010897
:1001500091FF0C08BDFF0C08E9FF0C08AB12010869
:10016000AB120108AB120108AB120108AB12010877
:10017000AB120108AB120108AB120108AB12010867
:10018000AB120108AB120108AB120108AB12010857
:10019000AB120108AB120108AB120108AB12010847
:1001A000AB120108AB120108AB120108AB12010837
:1001B000AB120108AB120108AB120108AB12010827
:1001C000AB120108AB120108AB120108AB12010817
:1001D000AB120108AB120108AB120108AB12010807
:1001E00065630108752803080D720308A1DA030886
:1001F000F9A20408597406087D7A060815EA06086B
:10020000C53A0708A5420708DD450708EDA7070816
:1002100059CD070891DB0708496E080861B708083F
:10022000E1820A0821930A08C1C40A08E9F40A080D
:100230008D1F0B08950A0C08D93F0C08FD790C0896
:10024000059F0C081DA90C08DDD70C08A5DD0C08BE
:1002500081F0004102E000BF83F0004330B54FEA77
:1002600041044FEA430594EA050F08BF90EA020FE4
:100270001FBF54EA000C55EA020C7FEA645C7FEA77
:10028000655C00F0E2804FEA5454D4EB5555B8BF9A
:100290006D420CDD2C4480EA020281EA030382EA0B
:1002A000000083EA010180EA020281EA0303362D9D
:1002B00088BF30BD11F0004F4FEA01314FF4801C70
:1002C0004CEA113102D0404261EB410113F0004F82
:1002D0004FEA03334CEA133302D0524263EB430339
:1002E00094EA050F00F0A780A4F10104D5F1200ED7
:1002F0000DDB02FA0EFC22FA05F2801841F1000132
:1003000003FA0EF2801843FA05F359410EE0A5F105
:1003100020050EF1200E012A03FA0EFC28BF4CF036
:10032000020C43FA05F3C01851EBE37101F00045EC
:1003300007D54FF0000EDCF1000C7EEB00006EEBF9
:100340000101B1F5801F1BD3B1F5001F0CD3490883
:100350005FEA30004FEA3C0C04F101044FEA4452DA
:1003600012F5800F80F09A80BCF1004F08BF5FEA61
:10037000500C50F1000041EB045141EA050130BD41
:100380005FEA4C0C404141EB0101013C28BFB1F553
:10039000801FE9D291F0000F04BF01460020B1FA9E
:1003A00081F308BF2033A3F10B03B3F120020CDA71
:1003B0000C3208DD02F1140CC2F10C0201FA0CF04F
:1003C00021FA02F10CE002F11402D8BFC2F1200CB4
:1003D00001FA02F120FA0CFCDCBF41EA0C0190406A
:1003E000E41AA2BF01EB0451294330BD6FEA0404B3
:1003F0001F3C1CDA0C340EDC04F11404C4F120029E
:1004000020FA04F001FA02F340EA030021FA04F3AF
:1004100045EA030130BDC4F10C04C4F1200220FA06
:1004200002F001FA04F340EA0300294630BD21FA44
:1004300004F0294630BD94F0000F83F4801306BF0A
:1004400081F480110134013D4EE77FEA645C18BFFE
:100450007FEA655C29D094EA050F08BF90EA020F95
:1004600005D054EA000C04BF1946104630BD91EA8D
:10047000030F1EBF0021002030BD5FEA545C05D190
:100480004000494128BF41F0004130BD14F58004CF
:100490003CBF01F5801130BD01F0004545F0FE4143
:1004A00041F470014FF0000030BD7FEA645C1ABF78
:1004B000194610467FEA655C1CBF0B46024650EAAF
:1004C000013406BF52EA033591EA030F41F40021DB
:1004D00030BD00BF90F0000F04BF0021704730B561
:1004E0004FF4806404F132044FF000054FF0000136
:1004F00050E700BF90F0000F04BF0021704730B5F7
:100500004FF4806404F1320410F0004548BF4042CB
:100510004FF000013EE700BF42004FEAE2014FEA20
:1005200031014FEA02701FBF12F07F4393F07F4FFB
:1005300081F06051704732F07F4208BF704793F0FE
:100540007F4F04BF41F40021704730B54FF4607411
:1005500001F0004521F000411CE700BF50EA010214
:1005600008BF704730B54FF000050AE050EA0102BD
:1005700008BF704730B511F0004502D5404261EB2D
:1005800041014FF4806404F132045FEA915C3FF46E
:10059000D8AE4FF003025FEADC0C18BF03325FEA0B
:1005A000DC0C18BF033202EBDC02C2F1200300FABC
:1005B00003FC20FA02F001FA03FE40EA0E0021FAE1
:1005C00002F11444BDE600BF70B54FF0FF0C4CF4CF
:1005D000E06C1CEA11541DBF1CEA135594EA0C0F81
:1005E00095EA0C0F00F0DEF82C4481EA030621EABC
:1005F0004C5123EA4C5350EA013518BF52EA0335F7
:1006000041F4801143F4801338D0A0FB02CE4FF0A8
:100610000005E1FB02E506F00042E0FB03E54FF0D8
:100620000006E1FB03569CF0000F18BF4EF0010ED0
:10063000A4F1FF04B6F5007F64F5407404D25FEACC
:100640004E0E6D4146EB060642EAC62141EA55517F
:100650004FEAC52040EA5E504FEACE2EB4F1FD0CC1
:1006600088BFBCF5E06F1ED8BEF1004F08BF5FEA3F
:10067000500E50F1000041EB045170BD06F00046F1
:1006800046EA010140EA020081EA0301B4EB5C049E
:10069000C2BFD4EB0C0541EA045170BD41F4801196
:1006A0004FF0000E013C00F3AB8014F1360FDEBFBB
:1006B000002001F0004170BDC4F10004203C35DA97
:1006C0000C341BDC04F11404C4F1200500FA05F31A
:1006D00020FA04F001FA05F240EA020001F00042BB
:1006E00021F0004110EBD37021FA04F642EB060131
:1006F0005EEA430E08BF20EAD37070BDC4F10C045B
:10070000C4F1200500FA04F320FA05F001FA04F21E
:1007100040EA020001F0004110EBD37041F100010A
:100720005EEA430E08BF20EAD37070BDC4F1200515
:1007300000FA05F24EEA020E20FA04F301FA05F27D
:1007400043EA020321FA04F001F0004121FA04F225
:1007500020EA020000EBD3705EEA430E08BF20EAF5
:10076000D37070BD94F0000F0FD101F0004640002F
:1007700041EB010111F4801F08BF013CF7D041EAB1
:10078000060195F0000F18BF704703F000465200B5
:1007900043EB030313F4801F08BF013DF7D043EA86
:1007A0000603704794EA0C0F0CEA135518BF95EA3C
:1007B0000C0F0CD050EA410618BF52EA4306D1D1C3
:1007C00081EA030101F000414FF0000070BD50EAE2
:1007D000410606BF1046194652EA430619D094EA6C
:1007E0000C0F02D150EA013613D195EA0C0F05D156
:1007F00052EA03361CBF104619460AD181EA0301AA
:1008000001F0004141F0FE4141F470014FF0000061
:1008100070BD41F0FE4141F4780170BD70B54FF0FC
:10082000FF0C4CF4E06C1CEA11541DBF1CEA13557C
:1008300094EA0C0F95EA0C0F00F0A7F8A4EB05045E
:1008400081EA030E52EA03354FEA013100F0888055
:100850004FEA03334FF0805545EA131343EA12631E
:100860004FEA022245EA111545EA10654FEA0026D3
:100870000EF000419D4208BF964244F1FD0404F58C
:10088000407402D25B084FEA3202B61A65EB0305E8
:100890005B084FEA32024FF480104FF4002CB6EBA5
:1008A000020E75EB030E22BFB61A754640EA0C0025
:1008B0005B084FEA3202B6EB020E75EB030E22BF65
:1008C000B61A754640EA5C005B084FEA3202B6EBA6
:1008D000020E75EB030E22BFB61A754640EA9C0065
:1008E0005B084FEA3202B6EB020E75EB030E22BF35
:1008F000B61A754640EADC0055EA060E18D04FEAF3
:10090000051545EA16754FEA06164FEAC30343EA92
:1009100052734FEAC2025FEA1C1CC0D111F4801F5F
:100920000BD141EA00014FF000004FF0004CB6E758
:1009300011F4801F04BF01430020B4F1FD0C88BFF7
:10094000BCF5E06F3FF6AFAEB5EB030C04BFB6EB02
:10095000020C5FEA500C50F1000041EB045170BDF5
:100960000EF0004E4EEA113114EB5C04C2BFD4EB22
:100970000C0541EA045170BD41F480114FF0000EA6
:10098000013C90E645EA060E8DE60CEA135594EA22
:100990000C0F08BF95EA0C0F3FF43BAF94EA0C0F25
:1009A0000AD150EA01347FF434AF95EA0C0F7FF49A
:1009B00025AF104619462CE795EA0C0F06D152EAEE
:1009C00003353FF4FDAE1046194622E750EA4106D2
:1009D00018BF52EA43067FF4C5AE50EA41047FF4E3
:1009E0000DAF52EA43057FF4EBAE12E74FF0FF3C48
:1009F00006E000BF4FF0010C02E000BF4FF0010C19
:100A00004DF804CD4FEA410C7FEA6C5C4FEA430C91
:100A100018BF7FEA6C5C1BD001B050EA410C0CBFE0
:100A200052EA430C91EA030F02BF90EA020F002042
:100A3000704710F1000F91EA030F58BF994208BFA9
:100A400090422CBFD8176FEAE37040F00100704766
:100A50004FEA410C7FEA6C5C02D150EA013C07D1BD
:100A60004FEA430C7FEA6C5CD6D152EA033CD3D008
:100A70005DF8040B704700BF8446104662468C4602
:100A80001946634600E000BF01B5FFF7B7FF002835
:100A900048BF10F1000F01BD4DF808EDFFF7F4FF5E
:100AA0000CBF012000205DF808FB00BF4DF808EDE9
:100AB000FFF7EAFF34BF012000205DF808FB00BF0C
:100AC0004DF808EDFFF7E0FF94BF012000205DF82E
:100AD00008FB00BF4DF808EDFFF7CEFF94BF0120E3
:100AE00000205DF808FB00BF4DF808EDFFF7C4FFDC
:100AF00034BF012000205DF808FB00BF4FEA410C25
:100B00007FEA6C5C02D150EA013C0AD14FEA430C07
:100B10007FEA6C5C02D152EA033C02D14FF0000044
:100B200070474FF0010070474FEA410212F5001282
:100B300015D211D56FF47873B3EB625212D94FEA24
:100B4000C12343F0004343EA505311F0004F23FA0E
:100B500002F018BF404270474FF00000704750EA63
:100B6000013005D111F0004008BF6FF00040704720
:100B70004FF00000704700BF4A0011D212F500127A
:100B800011D20DD56FF47873B3EB62520ED44FEAE5
:100B9000C12343F0004343EA505323FA02F0704765
:100BA0004FF00000704750EA013002D14FF0FF30A3
:100BB00070474FF0000070474FEA4102B2F1E04346
:100BC00024BFB3F5001CDCF1FE5C0DD901F0004C34
:100BD0004FEAC0024CEA5070B2F1004F40EB830084
:100BE00008BF20F00100704711F0804F21D113F1B0
:100BF0003872BCBF01F00040704741F480114FEAE9
:100C00005252C2F11802C2F1200C10FA0CF320FA71
:100C100002F018BF40F001004FEAC1234FEAD3238E
:100C200003FA0CFC40EA0C0023FA02F34FEA4303F8
:100C3000CCE77FEA625307D150EA01331EBF4FF081
:100C4000FE4040F44000704701F0004040F0FE409C
:100C500040F40000704700BF80F0004002E000BF99
:100C600081F0004142001FBF5FEA410392EA030F97
:100C70007FEA226C7FEA236C6AD04FEA1262D2EBE1
:100C80001363C1BFD218414048404140B8BF5B42E6
:100C9000192B88BF704710F0004F40F4000020F07F
:100CA0007F4018BF404211F0004F41F4000121F095
:100CB0007F4118BF494292EA030F3FD0A2F10102DF
:100CC00041FA03FC10EB0C00C3F1200301FA03F11D
:100CD00000F0004302D5494260EB4000B0F5000F40
:100CE00013D3B0F1807F06D340084FEA310102F1FF
:100CF0000102FE2A51D2B1F1004F40EBC25008BFB1
:100D000020F0010040EA03007047490040EB00007A
:100D1000013A28BFB0F5000FEDD2B0FA80FCACF17B
:100D2000080CB2EB0C0200FA0CF0AABF00EBC250A8
:100D300052421843BCBFD0401843704792F0000F96
:100D400081F4000106BF80F400000132013BB5E7E9
:100D50004FEA41037FEA226C18BF7FEA236C21D05F
:100D600092EA030F04D092F0000F08BF08467047C4
:100D700090EA010F1CBF0020704712F07F4F04D192
:100D8000400028BF40F00040704712F100723CBFA5
:100D900000F50000704700F0004343F0FE4040F4CF
:100DA000000070477FEA226216BF08467FEA23638D
:100DB0000146420206BF5FEA412390EA010F40F478
:100DC000800070474FF0000304E000BF10F00043C4
:100DD00048BF40425FEA000C08BF704743F09643AB
:100DE00001464FF000001CE050EA010208BF7047C6
:100DF0004FF000030AE000BF50EA010208BF70474D
:100E000011F0004302D5404261EB41015FEA010C61
:100E100002BF84460146002043F0B64308BFA3F159
:100E20008053A3F50003BCFA8CF2083AA3EBC2533B
:100E300010DB01FA02FC634400FA02FCC2F120025A
:100E4000BCF1004F20FA02F243EB020008BF20F091
:100E50000100704702F1200201FA02FCC2F12002F7
:100E600050EA4C0021FA02F243EB020008BF20EAEC
:100E7000DC7070477BB972B90029BEBF00204FF00B
:100E8000004106E008BF00281CBF6FF000414FF092
:100E9000FF3000F007BAADF1080C6DE904CE00296F
:100EA00009DB002B1ADB00F095F8DDF804E0DDE942
:100EB000022304B07047404261EB4101002B1BDB71
:100EC00000F088F8DDF804E0DDE9022304B04042D8
:100ED00061EB4101524263EB43037047524263EBC3
:100EE000430300F077F8DDF804E0DDE9022304B005
:100EF000404261EB41017047524263EB430300F013
:100F000069F8DDF804E0DDE9022304B0524263EB46
:100F10004303704753B94AB9002908BF00281CBFD2
:100F20004FF0FF314FF0FF3000F0BCB9ADF1080CCD
:100F30006DE904CE00F04EF8DDF804E0DDE90223AF
:100F400004B07047430803F05533C01A830803F018
:100F5000333300F03330184400EB101000F00F3042
:100F600000EB002000EB0040000E704707EE900AF7
:100F7000F5EEC07AF1EE10FA01D400F00BB8F1EE04
:100F8000677A08B517EE900A00F004F8404261EB6A
:100F9000410108BDD0B5FFF7BFFA0C4B0022064651
:100FA0000F46FFF711FBFFF7E7FD0446FFF792FA44
:100FB000074B0022FFF708FB02460B463046394636
:100FC000FFF74AF9FFF7D8FD2146D0BD0000F03DFC
:100FD0000000F0412DE9F047089D04468E46002BA5
:100FE0004DD18A42944669D9B2FA82F252B101FADD
:100FF00002F3C2F1200120FA01F10CFA02FC41EAED
:10100000030E94404FEA1C48210CBEFBF8F61FFA71
:101010008CF708FB16E341EA034306FB07F199420C
:101020000AD91CEB030306F1FF3080F01F819942BF
:1010300040F21C81023E63445B1AA4B2B3FBF8F099
:1010400008FB103344EA034400FB07F7A7420AD920
:101050001CEB040400F1FF3380F00A81A74240F248
:1010600007816444023840EA0640E41B00261DB1B3
:10107000D4400023C5E900433146BDE8F0878B42E8
:1010800009D9002D00F0EF800026C5E900013046A7
:101090003146BDE8F087B3FA83F6002E4AD18B4281
:1010A00002D3824200F2F980841A61EB030301202B
:1010B0009E46002DE0D0C5E9004EDDE702B9FFDE17
:1010C000B2FA82F2002A40F09280A1EB0C014FEAC2
:1010D0001C471FFA8CFE0126200CB1FBF7F307FB1F
:1010E000131140EA01410EFB03F0884208D91CEBC2
:1010F000010103F1FF3802D2884200F2CB8043465F
:10110000091AA4B2B1FBF7F007FB101144EA01443D
:101110000EFB00FEA64508D91CEB040400F1FF31CC
:1011200002D2A64500F2BB800846A4EB0E0440EABA
:1011300003409CE7C6F12007B34022FA07FC4CEAC3
:10114000030C20FA07F401FA06F31C43F9404FEAB6
:101150001C4900FA06F3B1FBF9F8200C1FFA8CFECB
:1011600009FB181140EA014108FB0EF0884202FA1F
:1011700006F20BD91CEB010108F1FF3A80F08880E0
:10118000884240F28580A8F102086144091AA4B29D
:10119000B1FBF9F009FB101144EA014100FB0EFE1E
:1011A0008E4508D91CEB010100F1FF346CD28E454D
:1011B0006AD90238614440EA0840A0FB0294A1EBDE
:1011C0000E01A142C846A64656D353D05DB1B3EB3B
:1011D000080261EB0E0101FA07F722FA06F3F1406B
:1011E0001F43C5E9007100263146BDE8F087C2F112
:1011F0002003D8400CFA02FC21FA03F3914001438A
:101200004FEA1C471FFA8CFEB3FBF7F007FB1036C2
:101210000B0C43EA064300FB0EF69E4204FA02F46E
:1012200008D91CEB030300F1FF382FD29E422DD9C1
:10123000023863449B1B89B2B3FBF7F607FB1633F6
:1012400041EA034106FB0EF38B4208D91CEB010176
:1012500006F1FF3816D28B4214D9023E6144C91AF6
:1012600046EA004638E72E46284605E70646E3E606
:101270001846F8E64B45A9D2B9EB020864EB0C0E10
:101280000138A3E74646EAE7204694E74046D1E71F
:10129000D0467BE7023B614432E7304609E76444CD
:1012A000023842E7704700BF02E000F000F8FEE7B6
:1012B00072B6374880F30888364880F30988364884
:1012C0003649086040F20000CCF200004EF634715E
:1012D000CEF200010860BFF34F8FBFF36F8F40F273
:1012E0000000C0F2F0004EF68851CEF20001086016
:1012F000BFF34F8FBFF36F8F4FF00000E1EE100A86
:101300004EF63C71CEF200010860062080F314888E
:10131000BFF36F8FC2F04EF9C2F046FA4FF055306E
:101320001F491B4A91423CBF41F8040BFAE71D4993
:10133000184A91423CBF41F8040BFAE71A491B4A8C
:101340001B4B9A423EBF51F8040B42F8040BF8E7DE
:1013500000201849184A91423CBF41F8040BFAE7B3
:10136000C2F02CF9C2F074FA144C154DAC4203DAF9
:1013700054F8041B8847F9E701F052FB114C124D59
:10138000AC4203DA54F8041B8847F9E7C2F014B9F9
:1013900000060020002200200000010808ED00E007
:1013A000000000200006002008D70F0800220020BF
:1013B000302B0020302B0020E83B0120E001010809
:1013C0005002010850020108500201082DE9F04FB7
:1013D0002DED108AC1F80CD0C3689D46BDEC108A73
:1013E000BDE8F08F002383F311882846A047002032
:1013F000C1F0FAF9FEE7C1F061F800DFFEE7000096
:1014000001F0FF01102A2BDB10F0070F08D010F8B5
:10141000013B013A8B422DD010F0070F42B3F6D1B9
:10142000F0B441EA012141EA014122F007047FF0D2
:1014300000070023F0E80256083C85EA010586EA29
:10144000010685FA47F5A3FA87F586FA47F6A5FA65
:1014500087F68EB9EED1F0BC01F0FF0102F0070271
:1014600032B110F8013B013A83EA010313B1F8D11C
:101470000020704701387047002D06BF35460338FD
:10148000073815F0010F07D1013015F4807F02BF36
:10149000013015F4C03F0130F0BC0138704700BF87
:1014A00010F8012B11F8013B012A28BF9A42F7D00E
:1014B000D01A7047034613F8012B002AFBD1181AE3
:1014C0000138704738B50022002304460D46FFF767
:1014D000EDFA28B920462946BDE8384000F00AB8A0
:1014E000204605F1004100F005F8404261EB410162
:1014F00038BD00BFD0B50C4B002206460F46FFF7A3
:1015000063F8FFF739FB0446FEF7E4FF074B0022C0
:10151000FFF75AF802460B4630463946FEF79CFE66
:10152000FFF72AFB2146D0BD0000F03D0000F0414E
:10153000036800221B68184710B503685B680446FF
:10154000984708B194F84D0010BD00002DE9F04116
:10155000674B03F5A04490B094F9E02806460F4687
:10156000002A00F0C28094F8285935B9614A83F006
:10157000D3FC284610B0BDE8F081B3F90C211AB9AC
:10158000B3F80A21A3F80C21B3F80C31632B05D86A
:10159000594A3946304683F0BFFC002500212E22EF
:1015A00004A80391C5F024F9D4F84408036803AAF9
:1015B0001B6832219847804630B9504A03AB394600
:1015C000304683F0A9FC4546B4F82038A3F57A7379
:1015D0009BB241F65832934206D9494B3A462021F4
:1015E000304683F091FA002594F9503A002B6BDDD8
:1015F00094F9083A002B5BDD424B3A4620213046F5
:1016000083F082FA00254049D4F85008322303AA17
:101610008FF056FD804640B903AB00933A463B4BF2
:101620002021304683F070FA45463949D4F84C08F9
:10163000322303AA8CF0DCFD804640B903AB009353
:101640003A46324B2021304683F05EFA454620214F
:10165000304683F051FAC8B104F50A63D3ED007A3D
:101660009FED2C7AF0EEE77AF4EEC77AF1EE10FAFD
:101670000CD594F9503A002B02DD94F8B43A2BB90A
:10168000254A3946304683F047FC002594F9503A04
:10169000002B7FF76EAF94F90D39002B3FF469AF43
:1016A0001E4B3A462021304683F02EFA002560E793
:1016B00094F8B48AB8F1000F06D1194B3A462021AC
:1016C000304683F021FA454694F9083A002B9ADD1A
:1016D00094F8398AB8F1000F95D1124B3A4620217F
:1016E000304683F011FA45468DE7012541E700BFFA
:1016F000402B00200CAC0D082EAC0D0855AC0D088D
:1017000060AC0D0872AC0D08E3AC0D08E7AC0D0839
:10171000F9AC0D0800000034FDAC0D0817AD0D0844
:1017200098AC0D08BEAC0D0838B5044683F0C8F976
:10173000114B93F8EC19114B1D68EB6A1A680029DC
:1017400008BF01461268184690475EF09DFFEB6A9D
:1017500093F89C105EF0D2F894F837305BB197F0B4
:1017600071F9EB6AD3F8A030C01AB0F5FA6F24BF54
:10177000002384F8373038BD407B00203C2B00200C
:1017800008B5FFF7D1FF054B05481B68DB6A93F8E6
:101790009C10BDE8084010F00DBD00BF3C2B0020A0
:1017A0005883002070B50E46054669F03FFA69F08F
:1017B00001FA10B90124204670BD0A4B93F9FE309E
:1017C000012BF7D169F032FA437A002BF2D169F09C
:1017D0002DFA847A002CEDD1034A3146284683F055
:1017E0009BFBE8E7404B002030AD0D0883F01EB9AD
:1017F0002DE9F0472DED028B857F90B004460F4612
:10180000002D40F0EE8090F90430002B00F0F680BF
:1018100083683BB903685B6B10B0BDEC028BBDE81D
:10182000F0471847764B1B68D86AFFF785FE0546D8
:10183000002840F0D6803946204684F0F1F9DFF8E0
:10184000F48106463946204683F08EFB98ED447AB3
:10185000D8ED437AB4EEE77A3040F1EE10FAC6B232
:1018600009D598F90831032B05D0664A3946204638
:1018700083F052FB2E46D8ED2C7AB0EE088AF4EEB7
:10188000C87AF1EE10FA0BD517EE900AFEF744FE77
:101890005D4ACDE900013946204683F03DFB002634
:1018A000D8ED2D7AF4EEC87AF1EE10FA0BD517EEDA
:1018B000900AFEF731FE554ACDE90001394620462F
:1018C00083F02AFB0026D8ED2E7AB8EE087AF4EEE3
:1018D000C77AF1EE10FA0BDD17EE900AFEF71CFE48
:1018E0004B4ACDE900013946204683F015FB00261E
:1018F000B8F99C30042B07DC052200923946454A92
:10190000204683F009FB0026D8F8880C69F0EAF934
:1019100080B198F9FE306BB1D8F8883CB8F9002155
:10192000B3F90E309A4205DA3B4A3946204683F035
:10193000F3FA002639462046FFF734FFDFF8F8A017
:10194000814639462046FFF701FE9AF8F13E002B0A
:101950004DD109EA060600EA060530484FF48061D9
:1019600001F03CF878B1D8F8883CB3F90C30A3F218
:10197000E24292B2B2F5FA7F05D9294A39462046A9
:1019800083F0CAFA0025274890F838355BB100F596
:10199000A66037F0FBFE064628B9234A39462046A2
:1019A00083F0BAFA354600212E2204A80DF10C0866
:1019B0000391C4F01DFFDAF8DC0E4246322109F033
:1019C0005DF9064668B9DAF8DC0E03689B6898474B
:1019D000164ACDF8008003463946204683F09CFA2B
:1019E0003546284610B0BDEC028BBDE8F087104AA2
:1019F0003946204683F090FA0025AEE70125F0E74E
:101A00003C2B002040AD0D0863AD0D0883AD0D08E3
:101A1000A5AD0D08C7AD0D08E6AD0D08402B0020A3
:101A200021AE0D08407B002049AE0D085DAE0D08CB
:101A30000CAE0D08404B0020406B002070B50546F1
:101A40000E46FFF7AFFE31460446284683F0B2FF4C
:101A50002040C0B270BD0000F0B591B005460E4602
:101A600083F022FB0446D8B11021284683F044F8C5
:101A7000B0B100212E2204A803AF0391C4F0B8FE38
:101A80001BF030FB32233A4601211AF0EBFD0446ED
:101A900030B9054B009732461021284683F034F8C0
:101AA000204611B0F0BD00BF64AE0D0870B505460C
:101AB0000E46B1B990F910408CB1164813F0FEFAF9
:101AC000DFED157AB0EEC00AB4EEE70AF1EE10FAD7
:101AD00007D4124A0121284683F01EFA34462046D4
:101AE00070BDAB689BB10E4B1B68D86AFFF724FD35
:101AF000044630B167F0D2FD0A4A042160F07EFE50
:101B0000EDE731462846BDE8704083F09FBD0124D3
:101B1000E5E700BF402B00200000003470AE0D0848
:101B20003C2B002082AE0D0838B5044684F032F913
:101B30000546A8B10B4805F07BFF38B10A490B48B0
:101B40001AF0E8FE10B1074800F01AFF2046FFF730
:101B500017FE0123064984F83730204684F030F818
:101B6000284638BD402B002090820020883C002071
:101B7000A4AE0D08F8B505460E461746C2B1232996
:101B800001D0012914D8244808F056FB044668B156
:101B900000242046F8BD95F91030022B08D067F0DC
:101BA0007DFD1E4A062160F029FEF2E7002EF2D0EC
:101BB0003A463146284684F099F904460028E7D091
:101BC000174ED6F8DC2E06F6FC439A4203D003F6F5
:101BD000340038F0BBF8D6F8DC0E124F03689B6B6C
:101BE0009847D7F8683887F80805012B07D169F0BE
:101BF0001DF8542169F068FF08B9C7F8680828463D
:101C0000FFF7BEFD4FF0FF330749C6F8143F2846E3
:101C100083F0D6FFBDE700BF402B0020B4AE0D0817
:101C2000406B0020407B0020CCAE0D082DE9F04F2A
:101C30002DED028B91B08846074683F009F8BD214F
:101C40000646404838F018F858B13F4B93F9D34056
:101C50003CB93E4B42464FF48041384682F054FF37
:101C600026463B4C94F82839002B64D01C220021D6
:101C700002A8B4F86495C4F0BBFD04A820F000FAF3
:101C800004F5A66AA4F54054012504F55A6B4D45A8
:101C900051D20BA820F0F4F909AA2946504635F094
:101CA00013FE002847D0BDF826102A4807F0C0FBD5
:101CB00080B3BDF80A30102B2CD104A90BA820F05A
:101CC0000FFD9FED257A2548B0EE408A9BED000A76
:101CD000B4EEC70AF1EE10FAB8BF94ED280A20EE70
:101CE000000A0EF093FBF6EE087A60EE277AB4EE67
:101CF000E78AF1EE10FA0DD517EE900AFEF70CFC0C
:101D0000174BCDE9000142464FF48041384682F03E
:101D1000FBFE00260DF1240CBCE80F000DF1080EAF
:101D2000AEE80F009CE80700AEE8030001358EF82E
:101D30000020ADB2ABE7304611B0BDEC028BBDE880
:101D4000F08F00BF70800020404B0020E0AE0D08F7
:101D5000407B0020402B00200000003458830020EE
:101D60000CAF0D0800207047014800F08BBD00BF8C
:101D7000402B002003685B681847000068F0A4BE91
:101D80002FF0B2BE5DF038BF08F0AABB0CF0B8BFB0
:101D900014F03ABC03F030BA5BF022BE1FF0D4B9A5
:101DA0006BF04CBD14F096BC51F054B96CF038BCDB
:101DB00013F002BA1EF02EBD6EF0A0BC68F09EBB00
:101DC00066F004BD07F01CBD05F0B4B80CF0C4BA51
:101DD0000CF0F4BE14F018BA14F02ABD13F01EB8BB
:101DE00014F04ABB01F07EBB00F2D45021F0FABAE5
:101DF00008F0B0B890F8DC32B02202FB030390F890
:101E0000202393F8B93012B1012B28BF01231846C3
:101E10007047000090F810310BB190F83D31184632
:101E200070470000034808602B21117008221A60D7
:101E3000704700BF48B20D08F8B5044604F58A564D
:101E400000F5AF4050300836FFF76EFC00213046F9
:101E50001BF0BAF88021204614F07AFF18B131F057
:101E6000E5F92FF0CFFA04F50055D5ED2C7A9FED6A
:101E70002F7A67EE877A05F69C47FDEEE77A04F540
:101E8000B44017EE903AC5F8983CD5F8B8303B60AE
:101E90004C3015F05FF9D8B9D5F8983C07EE903A78
:101EA00004F5805393EDE57AF8EEE77A67EE877AEA
:101EB000FDEEE77A17EE902AC5F8982CD3EDE47A78
:101EC00097ED007AF0EEE77A67EE877AC7ED007A51
:101ED00004F5A45106F5457034F08CFF04F5A945CE
:101EE00094ED607AD5ED037AE7EE007AC5ED037ADA
:101EF000B0EE670A31F0B0FE04F5B04085ED030A9C
:101F000018300DF083FB04F5B0400021243089F037
:101F1000ABF84FF40011204614F01AFF20B1304600
:101F2000BDE8F84019F070B9F8BD00BF0000C84224
:101F3000FFF782BF70B500F580430546D3F8DC0E8D
:101F400003689B6B984705F5B04418340646204655
:101F500010F0F2F805F5A043002893F8CB3418BF31
:101F600000262BB926B105F53450303088F0E0FF5B
:101F700020460FF097FD18B92046FFF74BFF20B120
:101F80002046BDE8704010F035BB70BDFFF7D2BFF2
:101F900038B54FF48011054614F0DAFE044620B936
:101FA0000121284614F0D4FE04460221284614F0EC
:101FB000CFFE50B114B9284603F044F805F58A5015
:101FC0000830BDE8384019F01DB8002CF6D138BDF6
:101FD000FFF7DEBF38B54FF48011044614F0B8FEA9
:101FE00001210546204614F0B3FE18B115B920466C
:101FF00003F028F81021204614F0AAFE60B1204614
:1020000003F012F94FF48001204614F0A1FE18B934
:1020100031F00CF92FF0E8FA2021204614F098FE58
:1020200028B1204603F076F9204603F08FFA4FF4EA
:102030000051204614F08CFE10B1204603F06EFAD9
:102040008021204614F084FE28B131F0EFF8BDE87D
:1020500038402FF0FBB938BDFFF7BCBF00F5804317
:1020600000F5AD40D3F8001F343086F0C5B900004C
:10207000FFF7F4BF10B5044621F0A6FA90F921301D
:102080008BB190F8403373B194F9F8355BB1064BDE
:102090001B68DB6A93F89C302BB904F2D450BDE87E
:1020A000104020F0B9BF10BD3C2B0020FFF7E2BF6D
:1020B0002DE9F04100F5EE5500F58057183504463E
:1020C00097F8261F284618F041FB002864D004F535
:1020D000C4763046FFF78EFE02285DD994F864344A
:1020E0004FF0B00808FB034393ED977AF1EE007AC6
:1020F000B4EEE77AF1EE10FA4ED497F8261F284690
:1021000018F0D4FD04F50053B3F99C2007EE902A93
:10211000B8EEE77AB4EEC07AF1EE10FA0CDD94F87E
:10212000642408FB0242F8EE677A92ED977AF4EEA7
:10213000C77AF1EE10FA2FDCD7F84023D3F8981CB9
:10214000002AB8BF52428A4226DCD7EDD17AD3EDBD
:102150002D6A9FED126AF8EEE77A66EE866AF4EE73
:10216000E67AF1EE10FA17DC03F69C4292ED007A63
:1021700027EE067AF4EEC77AF1EE10FA0CD494F852
:102180006414B02202FB01612846B3F99E20BDE829
:10219000F041EC3118F03CB9BDE8F0810000C842D4
:1021A000FFF786BF2DE9F04190F864342D4D00EB28
:1021B00003132F68D3F8148200F5C4760446304622
:1021C000FFF718FE474514D0022814D904F58047BC
:1021D000C5F8008097F80C3F012B15D817D104F5EE
:1021E000A045D5F85837E3B9D5F85C37CBB9052306
:1021F0000BE0022810D804F5804393F80C2F5AB155
:10220000052283F80C2F07E0013B87F80C3F04F50B
:10221000AC5004301CF01AF92046BDE8F0410CF037
:1022200049BA114B1B68D86A03685B6898478046B7
:102230000028ECD194F86414B02303FB0161C4318D
:10224000204605F063FCD5F83C370FCB05F5E86672
:1022500005F5EC6586E80F0085E80F0087F80C8F20
:10226000D5E700BF302B00203C2B0020FFF79ABFA2
:10227000F8B500F5A047044697F8283900F58056D0
:10228000BBB100F5B4404C3015F064FA18B101232D
:1022900086F85134F8BD04F5B045183528460FF0DE
:1022A00001FC08B10023F3E72846FFF7B3FD00283F
:1022B000F8D197F8CB34002BF4D1D7F80C35042B98
:1022C000E5D104F5AC40283092F0B2F886F851041C
:1022D000E0E7000010B500F5804400F59943D4F81C
:1022E000DC1E7C33994200F5A04308D000F59D42E6
:1022F000043291421CBF4FF0FF32C3F8842403F52F
:102300008F620749116003F27C43064A1A60FFF7A7
:10231000AFFFD4F8DC0E0368BDE810401B69184716
:102320000000C8420000C8C2FFF7D4BF70B500F576
:10233000A0460446D6F80C358B420D461CD00B1F28
:10234000594200F5AC405941283091F061FF072D0A
:102350000BD104F55050D6F894246423052192FB48
:10236000F3F33C30054A60F049FAC6F80C552046B4
:10237000BDE8704003F038B870BD00BF9CAF0D08D9
:1023800070B500F580460446D6F8DC0E03689B6BFA
:102390009847B8B104F5A04595F8083593B9D6F833
:1023A000DC2E04F599437C339A424CD104F5B046B7
:1023B000183630460EF082FD60B995F8C4347BB90A
:1023C000012108E004F5B045183528460FF06AFBF6
:1023D00000283ED002212046BDE87040FFF7A6BF8E
:1023E000B5F86E35152B27D195F82C1611F0010193
:1023F00020D1D5F80C35072B1CD095F9A2360BB996
:102400000421E8E7204612F059FEDFED137AB4EE1E
:10241000E70AF1EE10FAF3DB04F5AC40283091F056
:1024200047FF0028ECD004F550500C4A06213C3000
:1024300060F0E4F90721CEE73046FFF7EBFC002817
:10244000C8D10321C7E704F59D4304339A42F8D16C
:1024500070BD2846F1E700BF0000B442C0AF0D08D0
:1024600038B52F4DD5F8DC2E05F6FC439A422DEDFC
:10247000028B0446B0EE408A03D00020BDEC028BF4
:1024800038BD28480EF01AFD40B1BDEC028B04F5B2
:10249000B0401830BDE838400FF01CBE05F5805440
:1024A000D4F80C35042B32D195F80D3F33B11E49C9
:1024B000A1F5087037F0C2FE0028DFD194F8283962
:1024C0004BB118480EF0FAFC0028D6D115480EF092
:1024D000B5FC0028D1D19FED157AF0EEC87AF4EE64
:1024E000C77AF1EE10FA09D49FED110A28EE008A9E
:1024F000BDEEC88A18EE103AC4F894340D4891F035
:10250000D7FE0028B9D0002384F8C734B6E7B4F862
:102510006E15A5F5804006F08BFF0028C4D1ACE70E
:10252000406B00205883002090820020000000347F
:102530000000C8426881002010B52DED028B00F527
:10254000A0430446D3F80C35042B0BD104F08EFFC6
:102550002046B0EE408A04F0F3FF38EE400ABDECAE
:10256000028B10BD00F5AF4494ED000AF7E70000C0
:102570002DE9F0412DED028B00F596658AB00446F9
:1025800028461DF027F904F58A50002307A90830D2
:102590000793089309931AF0A3FB002800F08980A1
:1025A0009DED090ADFED5A7A04F5A04505F2A44332
:1025B00093ED007A20EE270ADFED567AA7EE270A80
:1025C00004F58047204683ED000AFFF7D9FED7F8CF
:1025D000DC0E03689B6B9847064604F5B040183044
:1025E0000FF0AAFD95F8CB34002818BF0026002B69
:1025F0005AD1002E58D095F80835002B54D1D5F873
:102600000C35042B6CD09FED448A204604F0B8FFB3
:10261000C5F8740BD7F8DC2E04F59A4328339A4298
:1026200004F500581AD195F8C837BBB9B8F9683C19
:10263000002B04DC394AD2F8542BD2060ED5D5F83B
:102640003C17D5F8442749680A33521A64214B4392
:102650008242ACBF9B181B18C5F8743BD5F8741B9D
:10266000D5F80C35D7F8102F059120460492039326
:1026700016F054F8B7F91E7F06462046FFF75CFFB8
:10268000CDE9006705F5A56504F53450F0EE400A84
:10269000DDE90332D8ED4E1A95ED001A0599B0EE3A
:1026A000480A303088F01AF90AB0BDEC028BBDE858
:1026B000F08104F5C470FFF79DFB02280AD994F855
:1026C0006434B02202FB034393F8902212B193EDDD
:1026D0009F0A67E728461CF00DFFB1EE400A61E74C
:1026E00004F5AE4604F5AE48503608F1600804F52E
:1026F000AE414246403130461FF05EFF002882D096
:10270000414630461FF0ECFFB0EE408A7DE700BF47
:10271000CDCC4C3ECDCC4C3F00000000404B0020C7
:10272000FFF726BFF8B500F5804200F59B43D2F8CD
:10273000DC2E1C339A4204460E4623D000F5B047E7
:10274000183738460FF0AEF90546A8B138460DF0F7
:1027500025FE70B104F5A044D4F8540803689B68C2
:102760009847DFED097A20EE270A86ED000A284611
:10277000F8BD9FED060AF8E704F5A9440125E36AD0
:102780003360F4E70025F2E70AD7233C000000009D
:10279000F8B500F5804200F59B43D2F8DC2E1C33DF
:1027A0009A4204460E4630D000F5B04718373846F6
:1027B0000FF078F90546A8B138460DF0EFFD70B17D
:1027C00004F5A044D4F854080368DB68984707EE82
:1027D000900AF8EEE77AC6ED007A2846F8BDDFEDFC
:1027E0000C7AF8E704F540540125D4F84006036854
:1027F0001B69984707EE900A9FED067AF8EEE77A94
:1028000067EE877AC6ED007AE7E70025E5E700BFC7
:10281000000000000AD7233CF8B500F5804200F51F
:102820009B43D2F8DC2E1C339A4204460E4624D039
:1028300000F5B047183738460FF034F9054688B12F
:1028400038460DF0ABFD50B104F5A044D4F854382F
:1028500018698DF0ABFB86ED000A2846F8BD9FEDA8
:10286000080AF8E704F540540125D4F84006036847
:102870005B69984786ED000AEFE70025EDE700BFAA
:10288000000000001FB50FC96C4684E80F00104A15
:10289000D2F8DC1E02F55663994216D19DF800303D
:1028A000D9070BD502F580526FF30003D2F83C270D
:1028B0008DF800305168019A0A440192054821467A
:1028C00005F07CF8012004B010BD0020FBE700BF3C
:1028D000406B0020402B002010B5044606480EF047
:1028E00013FF40B904F58044D4F8DC0E0368BDE85A
:1028F00010409B6C184710BD5883002010B504464B
:1029000006480EF049FB40B904F58044D4F8DC0ECB
:102910000368BDE81040DB6C184710BD58830020E9
:1029200070B5044600F5B04018300E4615460DF05F
:1029300099FE50B104F5A044D4F8C83A9B682B60C6
:10294000D4F8C83A5B68336070BD04F5805304F571
:102950000054D3F850232A60D3F84C333360D4F8B2
:10296000543B9B05F0D4D4ED4E6AD5ED007A9FED33
:10297000037AE6EEC77AC5ED007AE5E735FA8E3CD4
:1029800038B50D4D044629460C481AF0D5F804F523
:10299000804305F1300183F80D0F04F58A500830AB
:1029A00004F5AF4419F060FFD4ED007AF1EE677AD8
:1029B000C4ED007A38BD00BF90820020883C002022
:1029C00010B5044600F5C47029F02CFE2046BDE881
:1029D0001040FFF7D5BF0000FFF7F2BF00F5005031
:1029E000D0F8543B194214BF01200020704700006A
:1029F00000F5005303F6C44313F81C1CDFED067A00
:102A000093ED000A00F52D5020EE270A01F0010198
:102A10001C3094F0B1B900BF0000C842FFF7E8BF16
:102A200038B5054B1C6823680A461D68034B0146F0
:102A30002046A847002038BD3C2B0020402B00201A
:102A400070B52DED028B0446036804F500555B6DEF
:102A50009847D5F8543B1B0618D5B5F99C30B5F905
:102A60009E10CA1A0B4402EBD27203EBD3735210BE
:102A70005B1000EE902A00EE103A04F58A50F8EE52
:102A8000E00AB8EEC00A083019F074FCB5F8CE20A0
:102A9000584B594E1A7004F5AF45503569F0C6FDD4
:102AA00000212846FEF7A4FE0123B0712846F371E9
:102AB00082F006F828B9284683F096F8B0FA80F03C
:102AC00040093071284681F0FBFF04F5A045D8B9D4
:102AD00094F8643404EB031341F28832D3F814629F
:102AE000D5F8CC37F31A93420ED904F5C470FFF72A
:102AF00081F9022808D9C5F8CC67204604F098FF70
:102B000005F5C56300221A60B4F90C311BB9B4F89D
:102B10000A31A4F80C31B4F80C31DFED388A07EE35
:102B2000903AF8EEE77AB7EE008A88EE270AD4EDFD
:102B3000457AF0EEE77AF4EEE87AF1EE10FA09D58C
:102B4000B4F90A3107EE903AF8EEE77A88EE277A80
:102B500084ED457AD4ED450A30F080FF70BB5CF01F
:102B60009BF84FF4BD724FF480115CF04DF85AF0B1
:102B7000EDFF5AF063FC95F82839B0EE408A23B196
:102B8000D5F84C0803681B6F984704F53F50B0EE2A
:102B9000480A2C307AF0EEFA04F54550B0EE480AB7
:102BA00004307AF0E7FAB0EE480ABDEC028B04F587
:102BB00049503830BDE870407AF0DCBAD4ED457A3F
:102BC00094ED600AF0EEE77AF4EEE87AF1EE10FAAE
:102BD00009D5B4F90A3107EE903AF8EEE77A88EEB3
:102BE000277A84ED457AD4ED450A30F037FF002886
:102BF000B5D0BCE76D2300202D88002000000034F4
:102C0000FFF71EBF70B500F5A046044696F9A03642
:102C1000002B28DD07F010FB28BB04F5AF4550352D
:102C2000284682F0E1FFF0B1284681F049FFD0B19B
:102C300095F008FFD6F8B434C01A96F9A0364FF4D0
:102C40007A72534398420ED301221C212846FEF784
:102C500091FF40B104F55050034ABDE87040062191
:102C60003C305FF0CBBD70BDE0AF0D0800B52DED81
:102C7000028B9FED0B8AD0ED4E7A67EE887A83B097
:102C8000C0ED4E7A383001907AF0D2FA019820EEF9
:102C9000080A03B0BDEC028B5DF804EB7AF0E0BBF0
:102CA00052B87E3F00B52DED028B9FED0B8AD0ED23
:102CB0004F7A67EE887A83B0C0ED4F7A3C3001904E
:102CC0007AF0B6FA019820EE080A03B0BDEC028B48
:102CD0005DF804EB7AF0C4BB52B87E3F30B52DED01
:102CE000048B044683B000F58A5001A9083019F01E
:102CF000C9FF002800F0B18004F5A94595ED077AD9
:102D0000DDED017AB4EEE77AF1EE10FA05F11C057B
:102D100007D504F5AF40503081F0DCFE08B1019BCF
:102D20002B6004F5005595ED3C7AB5F99C30DFED4C
:102D30005C6A052BB8BF052307EE903AB5F99E30C3
:102D4000F8EEE78A07EE903AF8EEE77AB6EE009AE8
:102D500077EEA77A1820C7EE270ADFED527A68EEE1
:102D6000A77AF4EE490A87EE271AF0EE007AF1EE20
:102D700010FAB4EE671AC8BFF0EE490AF1EE10FA85
:102D800048BFB0EE671ADDED017AF4EEE67AF1EEB7
:102D900010FACCBF87EE270AB0EE410A30F070FF80
:102DA00004F5B0401830B0EE408A0EF07BFEB8B3A8
:102DB00004F5AF40503081F08DFE88B328EE892AAB
:102DC0009DED011AB4EEC21AF1EE10FA28D5D5ED38
:102DD0003C0ADFED351A9FED350AC0EE820A30F06D
:102DE00081FE04F53E503430B4EE408AF0EE408A65
:102DF000F1EE10FA48BFF0EE488AFFF737FF04F50E
:102E00004450083004F54054FFF74CFFD4EDEE7AFF
:102E10009FED277A67EE877AB0EE688AC4EDEE7A86
:102E2000244818F0D1FE90B923484021FFF7D6FD81
:102E300068B1224BD3F80C35012B08D1F7EE007A9C
:102E4000B4EEE78AF1EE10FA58BFB0EE678AB0EE42
:102E5000480A03B0BDEC048B30BD04F5AF405030E0
:102E600081F038FEB7EE008A0028D9D0462069F0FC
:102E70008DF9B4EEC80ADFED127AF1EE10FAD8BF80
:102E8000B0EE480A87EE800AC1F004FC2F209FEDC7
:102E90000D1ADFED0D0A30F0F3FEB0EE408ABFE709
:102EA00017B7D1383333333F000000006F12833A35
:102EB00052B87E3F883C0020402B0020407B002001
:102EC000000034428FC2D53F9A99193FF8B50446A5
:102ED00067F0ACFE0368DB689847054610B900252B
:102EE0002846F8BD04F58046204607F021F8D6F8BC
:102EF000DC2E04F59C432C339A42074605D104F599
:102F0000A04393F8E839022BE9D804F5B040183013
:102F10000EF0CEFF0028E2D1D6F8DC0E03689B6BE2
:102F2000984758B996F8F03E002BD9D004F50054D4
:102F300094F90851023D18BF0125D1E7084BD3F899
:102F4000DC0E03685B6B98470028EBD004F5005457
:102F500094F94531002BC2D0032BC0D03D46BFE7CA
:102F6000406B0020F0B52DED028B044600F5804744
:102F700000F5B04007F6287383B0183093ED008A4F
:102F80000EF0BCFE04F53E5504F5A046343500288D
:102F900044D1D6F84C0803689B689847D6F8D83ACD
:102FA0005B0225D5D6F84C3893ED437AD3ED097AF8
:102FB00067EE877A9FED317AF4EEC77AF1EE10FA78
:102FC00016DB04F5005404F6B87393ED007A67EE4F
:102FD000877AF7EE006A86EEA77A04F6B474B4EE48
:102FE000667AF1EE10FAC8BFB0EE667A84ED497ADF
:102FF000DFED237A90ED250AF0EE480A20EE270A4D
:10300000284684F047FB28468DED010AFFF72EFE87
:103010009DED010A03B0BDEC028BF0BDD7F8DC2EAC
:1030200004F598430C339A4226D104F50053D3F8A3
:10303000803CB3F90870003F18BF012704F58054A5
:10304000D6F82035D4F840431C1B96F81C353BB10C
:103050000C484FF40061FFF7C1FC80F00100C3B2DF
:103060003A46B0EE480A2146284603B0BDEC028B32
:10307000BDE8F04084F012BB0027DFE70000003419
:10308000E02E6542402B002010B5044606F0F8FA09
:1030900098B104F5A042D2F8203503F58C415031A7
:1030A000C2F8201504F58051D1F840130029BEBFA5
:1030B000A3F58C43503BC2F820352046FFF752FF62
:1030C000BDE81040042069F04DB800002DE9F0473C
:1030D00000F5B0442DED048B00F580491834054609
:1030E00009F628732046D3ED008A0EF007FE05F599
:1030F000445605F5A0470836002842D1D7F84C08B9
:103100000368DB689847D7F8D83A5B0221D5D7F82F
:103110004C3893ED447AD3ED0B7A67EE877A9FEDC6
:10312000517AF4EEC77AF1EE10FA12DB05F540554C
:1031300095ED437A67EE877AF7EE006A86EEA77A16
:10314000B4EE667AF1EE10FAC8BFB0EE667A85ED9D
:103150008C7A90ED250ADFED447AF0EE680A20EED5
:10316000270A304683F0F0FE3046B0EE408AFFF783
:1031700099FDBDEEC80ABDEC048BB8EEC00ABDE8EF
:10318000F087204605F500580DF036F99FED379A87
:1031900098ED4E8AD7F8243528EE098A8246BDEE8E
:1031A000C88A462018EE102A1A4408EE102A68F041
:1031B000EDFFB8EEC88AD8ED387AD9F8DC0EA0EE6B
:1031C000278A05F598430C339842FDEEC87A17EE2E
:1031D000904A43D1D8F8843CB3F90880B8F100088C
:1031E00018BF4FF00108BAF1000F1CD103685B69EA
:1031F0009847C0B9D9F8DC0E03689B6B984790B923
:10320000D7F86C3B022B0ED1284611F0A5FD50B12A
:1032100005F5AD43D3ED007A67EE897AFDEEE77AE6
:1032200017EE903A1CB205F58055D5F84433E41AF0
:1032300097F81C353BB10E484FF40061FFF7CEFB09
:1032400080F00100C3B2B0EE680ABDEC048B4246C8
:1032500021463046BDE8F04783F05CBF4FF00008E0
:10326000C1E700BF00000034E02E65420000C84204
:10327000402B002010B5044615F090FB68B100B259
:1032800000EB4000C0EB001300EE103AB8EEC00AAD
:10329000BDE81040132068F065BF2046FFF716FF19
:1032A000F6E7000010B51048FFF710FED0B10F4848
:1032B0000EF038FFB0B10E4C042068F067FFD4F870
:1032C000800C67F023FF042068F04CFF132068F0A7
:1032D0005DFFD4F8840C67F019FFBDE8104013209F
:1032E00068F040BF10BD00BF402B00205883002075
:1032F000404B0020F8B52DED028B0446FFF7E6FDAC
:10330000002800F0A88004F5804704F59842D7F81B
:10331000DC3E4432934200F09E8004F59942934291
:1033200000F099806032934200F0958004F5994254
:103330001C32934200F08F8004F599423832934258
:1033400000F0898004F59B423832934200F083807C
:1033500004F59B42543293427DD004F59B42703277
:10336000934278D004F59C421032934273D004F516
:103370009C424C3293426ED004F5B04018300EF0AF
:10338000D1FE002867D0D7F8DC2E04F59843283307
:103390009A4260D004F50055F6EE008AD5F8800C0C
:1033A00067F074FDB4EEE80AF1EE10FA40DDB0EE1D
:1033B000087AFFEE007AE0EE077AB0EE670AD5F8F9
:1033C000982C04F5A04607EE902AD6F82035B8EEE2
:1033D000E77A07EE903AF8EEE77A5142E7EE007AA4
:1033E000FDEEE77A17EE900AC6F8200530F0E8FC0B
:1033F000C6F82005D7F8DC2E04F59A4344339A42E8
:1034000022D0D5F8840C67F041FDB4EEE80AF1EE65
:1034100010FAB0EE408A21DCFEEE007AB4EEE70A44
:10342000F1EE10FA22D5B0EE087AF7EE007A19E044
:10343000FEEE007AB4EEE70AF1EE10FABFD5B0EE78
:10344000087AF7EE007AB6E724484FF48051FFF788
:10345000C5FA0028D5D0BDEC028BF8BDB0EE087AD5
:10346000FFEE007AE8EE077AB0EE678A204606F0B3
:1034700007F908B1B1EE488AD6F82435D5ED2D6AA2
:103480009FED176A05F69C4595ED007AB5EEC08A6A
:1034900007EE903AF1EE10FACCBF28EE268A27EE1E
:1034A000488AF8EEE77A66EE866AE8EE067A27EE54
:1034B000067AFDEEE77AFDEEE66A17EE903ABDEE8B
:1034C000C77A16EE902A17EE101A17EE900AC6F871
:1034D000243530F075FCC6F82405BCE7402B0020ED
:1034E0000000C84270B5044695F0ACFA04F5A0435C
:1034F000064693F8282952B1D3F85009036804F519
:10350000AA4204F5AA411B6A20322431984704F5E7
:103510008045D5F8EC3EF31AB3F5FA6F03D9D5F828
:10352000DC0E07F0C5FB2E4BC5F8EC6ED3F8DC0EB5
:103530000268136898470021204611F0BFFDDFEDB7
:10354000297AB0EEC00AB4EEE70AF1EE10FA45D5DA
:1035500004F5AF43D3ED007AB1EE047AF0EEE77AEA
:10356000F4EEC77AF1EE10FA38D504F596601BF048
:10357000C1FFF6EE007AB0EEC00AB4EEE70AF1EE53
:1035800010FA2BD504F5AA5595ED037AF0EE087ADA
:10359000B4EEE77AF1EE10FA05F10C051ED504F54C
:1035A0003E50343084F0BCF804F54450083083F0C9
:1035B00061FE04F54950203084F060FD95ED007AFD
:1035C000F7EE007AB4EEE77AF1EE10FA06D504F5DC
:1035D0004F501430BDE8704084F0A6BA70BD00BFF3
:1035E000406B00200000003400F5005090F993304B
:1035F000012BC3BF00F5536090ED290ADFED047A7B
:103600009FED040AC8BF20EE270A462068F0AABD35
:103610000000C842000000002DE9F8432DED028BA8
:1036200000F5804909F62873D3ED008A054611F0AC
:1036300097F90746D9F8DC0E03681B6A984705F529
:103640004956203698B14D4CD4F8EC34002B0EDDA1
:1036500095F0F8F9D4F8EC34C01A40F6B733984234
:1036600005D8B4F9E044304684F014FD78E005F55F
:10367000A04805F5005498F8613B43B1B4F92431F2
:10368000002B04DD05F5405393F9763203BBD9F8DE
:10369000DC3E05F598450C35AB426BD00021B0EE11
